{
  "contractName": "Sound",
  "abi": [
    {
      "inputs": [
        {
          "internalType": "uint256",
          "name": "_precio",
          "type": "uint256"
        },
        {
          "internalType": "int256",
          "name": "_rate",
          "type": "int256"
        }
      ],
      "payable": false,
      "stateMutability": "nonpayable",
      "type": "constructor"
    },
    {
      "constant": false,
      "inputs": [
        {
          "internalType": "int256[]",
          "name": "audioPart",
          "type": "int256[]"
        }
      ],
      "name": "upload",
      "outputs": [],
      "payable": false,
      "stateMutability": "nonpayable",
      "type": "function"
    },
    {
      "constant": true,
      "inputs": [],
      "name": "getLen",
      "outputs": [
        {
          "internalType": "uint256",
          "name": "",
          "type": "uint256"
        }
      ],
      "payable": false,
      "stateMutability": "view",
      "type": "function"
    },
    {
      "constant": true,
      "inputs": [
        {
          "internalType": "uint256",
          "name": "first",
          "type": "uint256"
        },
        {
          "internalType": "uint256",
          "name": "last",
          "type": "uint256"
        }
      ],
      "name": "download",
      "outputs": [
        {
          "internalType": "int256[]",
          "name": "",
          "type": "int256[]"
        }
      ],
      "payable": false,
      "stateMutability": "view",
      "type": "function"
    },
    {
      "constant": true,
      "inputs": [],
      "name": "getRate",
      "outputs": [
        {
          "internalType": "int256",
          "name": "",
          "type": "int256"
        }
      ],
      "payable": false,
      "stateMutability": "view",
      "type": "function"
    },
    {
      "constant": false,
      "inputs": [],
      "name": "buySound",
      "outputs": [],
      "payable": true,
      "stateMutability": "payable",
      "type": "function"
    },
    {
      "constant": true,
      "inputs": [],
      "name": "compras",
      "outputs": [
        {
          "internalType": "address[]",
          "name": "",
          "type": "address[]"
        }
      ],
      "payable": false,
      "stateMutability": "view",
      "type": "function"
    },
    {
      "constant": true,
      "inputs": [],
      "name": "getPrecio",
      "outputs": [
        {
          "internalType": "uint256",
          "name": "",
          "type": "uint256"
        }
      ],
      "payable": false,
      "stateMutability": "view",
      "type": "function"
    }
  ],
  "bytecode": "0x608060405234801561001057600080fd5b5060405161099c38038061099c8339818101604052604081101561003357600080fd5b81019080805190602001909291908051906020019092919050505033600460006101000a81548173ffffffffffffffffffffffffffffffffffffffff021916908373ffffffffffffffffffffffffffffffffffffffff160217905550816001819055508060028190555050506108ee806100ae6000396000f3fe6080604052600436106100705760003560e01c80637ebd1d381161004e5780637ebd1d38146100d55780639f018c7a14610141578063a312880b14610206578063bce547201461023157610070565b80634a90be5714610075578063679aefce146100a0578063764c55df146100cb575b600080fd5b34801561008157600080fd5b5061008a6102cb565b6040518082815260200191505060405180910390f35b3480156100ac57600080fd5b506100b56102d7565b6040518082815260200191505060405180910390f35b6100d36102e1565b005b3480156100e157600080fd5b506100ea6104ef565b6040518080602001828103825283818151815260200191508051906020019060200280838360005b8381101561012d578082015181840152602081019050610112565b505050509050019250505060405180910390f35b34801561014d57600080fd5b506102046004803603602081101561016457600080fd5b810190808035906020019064010000000081111561018157600080fd5b82018360208201111561019357600080fd5b803590602001918460208302840111640100000000831117156101b557600080fd5b919080806020026020016040519081016040528093929190818152602001838360200280828437600081840152601f19601f82011690508083019250505050505050919291929050505061057d565b005b34801561021257600080fd5b5061021b61069f565b6040518082815260200191505060405180910390f35b34801561023d57600080fd5b506102746004803603604081101561025457600080fd5b8101908080359060200190929190803590602001909291905050506106a9565b6040518080602001828103825283818151815260200191508051906020019060200280838360005b838110156102b757808201518184015260208101905061029c565b505050509050019250505060405180910390f35b60008080549050905090565b6000600254905090565b600154341015610359576040517f08c379a00000000000000000000000000000000000000000000000000000000081526004018080602001828103825260178152602001807f4e6f20657320737566696369656e74652064696e65726f00000000000000000081525060200191505060405180910390fd5b6103e960038054806020026020016040519081016040528092919081815260200182805480156103de57602002820191906000526020600020905b8160009054906101000a900473ffffffffffffffffffffffffffffffffffffffff1673ffffffffffffffffffffffffffffffffffffffff1681526020019060010190808311610394575b50505050503361083d565b6104ed57600460009054906101000a900473ffffffffffffffffffffffffffffffffffffffff1673ffffffffffffffffffffffffffffffffffffffff166108fc6001549081150290604051600060405180830381858888f19350505050158015610457573d6000803e3d6000fd5b5060033390806001815401808255809150509060018203906000526020600020016000909192909190916101000a81548173ffffffffffffffffffffffffffffffffffffffff021916908373ffffffffffffffffffffffffffffffffffffffff16021790555050600060025490806001815401808255809150509060018203906000526020600020016000909192909190915055505b565b6060600380548060200260200160405190810160405280929190818152602001828054801561057357602002820191906000526020600020905b8160009054906101000a900473ffffffffffffffffffffffffffffffffffffffff1673ffffffffffffffffffffffffffffffffffffffff1681526020019060010190808311610529575b5050505050905090565b600460009054906101000a900473ffffffffffffffffffffffffffffffffffffffff1673ffffffffffffffffffffffffffffffffffffffff163373ffffffffffffffffffffffffffffffffffffffff1614610640576040517f08c379a00000000000000000000000000000000000000000000000000000000081526004018080602001828103825260138152602001807f4e6f20657374c3a1206175746f72697a61646f0000000000000000000000000081525060200191505060405180910390fd5b60008090505b815181101561069b57600082828151811061065d57fe5b602002602001015190806001815401808255809150509060018203906000526020600020016000909192909190915055508080600101915050610646565b5050565b6000600154905090565b606061073b600380548060200260200160405190810160405280929190818152602001828054801561073057602002820191906000526020600020905b8160009054906101000a900473ffffffffffffffffffffffffffffffffffffffff1673ffffffffffffffffffffffffffffffffffffffff16815260200190600101908083116106e6575b50505050503361083d565b6107ad576040517f08c379a000000000000000000000000000000000000000000000000000000000815260040180806020018281038252601b8152602001807f4e6f20686120636f6d707261646f20656c20617564696f2061756e000000000081525060200191505060405180910390fd5b60606001848403016040519080825280602002602001820160405280156107e35781602001602082028038833980820191505090505b50905060008490505b838111610832576000818154811061080057fe5b9060005260206000200154828683038151811061081957fe5b60200260200101818152505080806001019150506107ec565b508091505092915050565b6000806000905060008090505b845181108015610858575081155b156108ae578373ffffffffffffffffffffffffffffffffffffffff1685828151811061088057fe5b602002602001015173ffffffffffffffffffffffffffffffffffffffff16149150808060010191505061084a565b50809150509291505056fea265627a7a72315820eebe8725b1dd3b7a611bf8754f9c5e77a3443f8cc48333c72980b1c13fa9c70264736f6c634300050c0032",
  "source": "pragma solidity ^0.5.7;\n\ncontract Sound{\n    int[] sonido;\n    uint precio;\n    int rate;\n    address[] compradores;\n    address payable private owner;\n\n    constructor(uint _precio,int _rate) public {\n        owner = msg.sender;\n        precio = _precio;\n        rate = _rate;\n    }\n\n    function upload (int[] memory audioPart) public{\n        if(msg.sender != owner)revert(\"No está autorizado\");\n        for(uint i = 0; i < audioPart.length;i++)\n            sonido.push(audioPart[i]);\n    }\n    \n    function find(address[] memory v,address e) private pure returns(bool)\n    {\n        bool found = false;\n\n        for(uint i = 0; i < v.length && !found; i++)\n            found = v[i] == e;\n\n        return found;\n    }\n\n    function getLen() public view returns(uint)\n    {\n        return sonido.length;\n    }\n\n    function download (uint first, uint last) public view returns (int[] memory)\n    {\n        if(!find(compradores,msg.sender)) revert(\"No ha comprado el audio aun\");\n        int[] memory aux = new int[](last-first+1);\n\n        for(uint i = first; i <= last; i++)\n        {\n            aux[i-first] = sonido[i];\n        }\n        \n        return aux;\n    }\n\n    function getRate () public view returns(int)\n    {\n        return rate;\n    }\n\n    function buySound() public payable{\n        if(msg.value < precio )revert(\"No es suficiente dinero\");\n        if(!find(compradores,msg.sender))\n        {\n            owner.transfer(precio);\n            compradores.push(msg.sender);\n            sonido.push(rate);\n        }\n    }\n\n    function compras() public view returns(address[] memory)\n    {\n        return compradores;\n    }\n\n    function getPrecio() public view returns(uint)\n    {\n        return precio;\n    }\n}",
  "sourcePath": "/home/javi/Escritorio/3º/SSI/musicDAPP/contracts/Sound.sol",
  "compiler": {
    "name": "solc",
    "version": "0.5.12+commit.7709ece9.Emscripten.clang"
  },
  "schemaVersion": "3.0.19",
  "updatedAt": "2020-01-02T18:50:17.307Z",
  "devdoc": {
    "methods": {}
  },
  "userdoc": {
    "methods": {}
  }
}